:1004560050617373776F72643A004F4B20004552B8
:02046600520042
:10018C001204427BFF7A0479567D017F011203B879
:10019C001200038F1CE51C60F7D3940A5033C3E59F
:1001AC00199404E51894005020AE1AAF1B7C007D06
:1001BC000A1202738E1A8F1BE51C75F00A84E5F087
:1001CC00251BF51BE4351AF51A0519E519700205FE
:1001DC0018E51C640B7036E51BB4290DE51AB4093F
:1001EC00087BFF7A04796080067BFF7A0479647D52
:1001FC000E7F011203B8E4F51AF51BF518F5197505
:10020C000C04AB1BAA1A7D017F021203F9E51CB486
:10021C000C17E4F51AF51BF518F519750C04AB1B46
:10022C00AA1A7D017F021203F9750C04AB1BAA1AE2
:0A023C007D017F021203F902019C0C
:10041600EF1FAC0670011E4C600B007D027CC7DC32
:05042600FEDDFC80EB8F
:01042B0022AE
:06046800C2A58F80D2A79F
:08046E007F027EEFDEFEDFFCE1
:010476002263
:0A048300C2A6120468C2A702046EAC
:1003DB00CFCDCFCECCCE1202857C007D0A1202850A
:0403EB00ED2430FFCE
:0A03EF00D2A6120468C2A702046E31
:10042C00AE07BE0104ED148006BE0209ED243F4464
:06043C0080FF1204832280
:100442007F381204837F0C1204837F061204837F99
:04045200010204831C
:0A048D00AC0312042CAF040203EFCD
:0603B8008B088A09890A86
:1003BE0012042CE4FDAB08AA09A90A8D82758300EC
:0C03CE00120246FF60061203EF0D80E9EA
:0103DA002200
:0C0385007F0AEA24FFFDE434FFFC7E0048
:080391008E0D8F0E8C0F8D10F4
:100399007F017E00E4FBEBC39510E50F6480F874E0
:0E03A9008098500AAC0DAD0E1202730B80E866
:0103B7002223
:0403F9008A0A8B0BD6
:1003FD0012042CAA0CEAD39400400D120385AC0A0A
:08040D00AD0B1203DB1A80EDB8
:0104150022C4
:1002DA0012042CC3EA64809480400B7F2B1203EF34
:1002EA008A168B17800E7F2D1203EFC3E49BF51736
:1002FA00E49AF516AA15EAD39400400D120385ACC8
:09030A0016AD171203DB1A80ED99
:0103130022C7
:040314008A1F8B2091
:1003180012042CAA21EAD3940040297F10120387E3
:10032800AC1FAD20CFCDCFCECCCE120285EF540F6F
:10033800FEC3940AEE5004243080022437FF1203CF
:04034800EF1A80D157
:01034C00228E
:04034D008A248B254E
:1003510012042CAA26EAD394004028EA24FFFDE4E3
:1003610034FFFC7F027E00120391AC24AD25CFCD7A
:10037100CFCECCCE120285EF54012430FF1203EF11
:030381001A80D20D
:010384002256
:10000300E4F5087590FFC2932097137F14FE120442
:10001300163097FD7F147E00120416750801209692
:10002300147F147E001204163096FD7F147E001296
:1000330004167508052095147F147E0012041630EB
:1000430095FD7F147E001204167508092094147F11
:10005300147E001204163094FD7F147E00120416E1
:1000630075080D7590FFC2922097147F147E0012BD
:1000730004163097FD7F147E0012041675080220C3
:1000830096147F147E001204163096FD7F147E00B2
:100093001204167508062095147F147E00120416A8
:1000A3003095FD7F147E0012041675080A209414FF
:1000B3007F147E001204163094FD7F147E00120418
:1000C3001675080E7590FFC2912097147F147E0059
:1000D3001204163097FD7F147E0012041675080370
:1000E3002096147F147E001204163096FD7F147E32
:1000F300001204167508072095147F147E0012045D
:10010300163095FD7F147E0012041675080B20949B
:10011300147F147E001204163094FD7F147E0012A7
:10012300041675080F7590FFC2902097147F147EF4
:10013300001204163097FD7F147E00120416750812
:10014300042096147F147E001204163096FD7F144B
:100153007E001204167508082095147F147E001281
:1001630004163095FD7F147E0012041675080C20CA
:1001730094147F147E001204163094FD7F147E00C5
:08018300120416750810AF0804
:01018B002251
:0300000002047780
:0C047700787FE4F6D8FD75812602018C28
:10024600BB010CE58229F582E5833AF583E022506D
:1002560006E92582F8E622BBFE06E92582F8E222B7
:0D026600E58229F582E5833AF583E49322D1
:10027300EF8DF0A4A8F0CF8CF0A428CE8DF0A42E9F
:02028300FE2259
:10028500BC000BBE0029EF8DF084FFADF022E4CC5D
:10029500F875F008EF2FFFEE33FEEC33FCEE9DEC26
:1002A500984005FCEE9DFE0FD5F0E9E4CEFD22ED6C
:1002B500F8F5F0EE8420D21CFEADF075F008EF2FB6
:1002C500FFED33FD4007985006D5F0F222C398FDA7
:0502D5000FD5F0EA2244
:00000001FF
