:0B03DF004D61747269784B65793A003B
:1002FE001203B07BFF7A0379DF7D017F01120326A3
:10030E001200038F22E52260F7FB7A00750C027D46
:08031E00017F0212036780E871
:10038400EF1FAC0670011E4C600B007D027CC7DCC5
:05039400FEDDFC80EB22
:010399002241
:0603C400C2A58F80D2A744
:0803CA007F027EEFDEFEDFFC86
:0103D2002208
:0A03EA00C2A61203C4C2A70203CA90
:10034900CFCDCFCECCCE1201CB7C007D0A1201CB12
:04035900ED2430FF60
:0A035D00D2A61203C4C2A70203CA0D
:10039A00AE07BE0104ED148006BE0209ED243F44F7
:0603AA0080FF1203EA22AD
:1003B0007F381203EA7F0C1203EA7F061203EA7FFA
:0403C000010203EA49
:0A03F400AC0312039AAF0402035D8C
:060326008B088A09890A18
:10032C0012039AE4FDAB08AA09A90A8D8275830011
:0C033C0012018CFF600612035D0D80E9C9
:010348002292
:0C02CB007F0AEA24FFFDE434FFFC7E0003
:0802D7008E0D8F0E8C0F8D10AF
:1002DF007F017E00E4FBEBC39510E50F6480F8749B
:0E02EF008098500AAC0DAD0E1201B90B80E8DC
:0102FD0022DE
:040367008A0A8B0B68
:10036B0012039AAA0CEAD39400400D1202CBAC0AEA
:08037B00AD0B1203491A80EDDD
:010383002257
:1002200012039AC3EA64809480400B7F2B12035D13
:100230008A168B17800E7F2D12035DC3E49BF51782
:10024000E49AF516AA15EAD39400400D1202CBAC3D
:0902500016AD171203491A80EDE6
:010259002282
:04025A008A1A8B1B56
:10025E0012039AAA1CEAD3940040297F101202CDF1
:10026E00AC1AAD1BCFCDCFCECCCE1201CBEF540FEF
:10027E00FEC3940AEE5004243080022437FF12038A
:04028E005D1A80D1A4
:010292002249
:040293008A1F8B2013
:1002970012039AAA21EAD394004028EA24FFFDE436
:1002A70034FFFC7F027E001202D7AC1FAD20CFCDFA
:1002B700CFCECCCE1201CBEF54012430FF12035D19
:0302C7001A80D2C8
:0102CA002211
:10000300E4F5087590FFC2932097137F14FE120343
:10001300843097FD7F147E001203847508012096B7
:10002300147F147E001203843096FD7F147E001229
:1000330003847508052095147F147E001203843011
:1000430095FD7F147E001203847508092094147FA4
:10005300147E001203843094FD7F147E0012038407
:1000630075080D7590FFC2922097147F147E0012BD
:1000730003843097FD7F147E0012038475080220E9
:1000830096147F147E001203843096FD7F147E0045
:100093001203847508062095147F147E00120384CE
:1000A3003095FD7F147E0012038475080A20941492
:1000B3007F147E001203843094FD7F147E001203AC
:1000C3008475080E7590FFC2912097147F147E00EB
:1000D3001203843097FD7F147E0012038475080396
:1000E3002096147F147E001203843096FD7F147EC5
:1000F300001203847508072095147F147E001203F1
:10010300843095FD7F147E0012038475080B2094C0
:10011300147F147E001203843094FD7F147E00123A
:10012300038475080F7590FFC2902097147F147E87
:10013300001203843097FD7F147E00120384750838
:10014300042096147F147E001203843096FD7F14DE
:100153007E001203847508082095147F147E001214
:1001630003843095FD7F147E0012038475080C20F0
:1001730094147F147E001203843094FD7F147E0058
:08018300120384750810AF0897
:01018B002251
:030000000203D325
:0C03D300787FE4F6D8FD7581220202FE5E
:10018C00BB010CE58229F582E5833AF583E0225028
:10019C0006E92582F8E622BBFE06E92582F8E22272
:0D01AC00E58229F582E5833AF583E493228C
:1001B900EF8DF0A4A8F0CF8CF0A428CE8DF0A42E5A
:0201C900FE2214
:1001CB00BC000BBE0029EF8DF084FFADF022E4CC18
:1001DB00F875F008EF2FFFEE33FEEC33FCEE9DECE1
:1001EB00984005FCEE9DFE0FD5F0E9E4CEFD22ED27
:1001FB00F8F5F0EE8420D21CFEADF075F008EF2F71
:10020B00FFED33FD4007985006D5F0F222C398FD61
:05021B000FD5F0EA22FE
:00000001FF
