:100109002030080000000000000000FF080808FF78
:10011900000E15151508007E0102007E0102000E71
:1001290011110E007D000000000000000000000019
:03013900000000C3
:10008F00753903E4F53A120175E4F538E538253989
:10009F002408F8E6FD7C00AF3812013D0538E5383D
:1000AF00C3940840E7053AE53AD3940A40DB053A92
:1000BF007F327E0012015F0539E539D3942040C9A4
:0500CF00E4F53980C4D6
:10015F00EF1FAC0670011E4C600B007D027CC7DCEC
:05016F00FEDDFC80EB49
:010174002268
:0200D400A9077A
:1000D600E4FBFAAF0374807E00A807088006CEA270
:1000E600E713CE13D8F8FFE9FDEF5D24FF92B4D2F3
:1000F600B6C2B60BBB00010AEB64084A70D5D2B58E
:02010600C2B580
:0101080022D4
:05017500C2B6C2B52274
:10013D008F3BAF051200D4AF3B7480A80708800237
:10014D00C313D8FCF4F5807F017E0012015F75802A
:02015D00FF227F
:03000000020003F8
:0C000300787FE4F6D8FD75813B02004ACE
:10000F0002008FE493A3F8E493A34003F68001F278
:10001F0008DFF48029E493A3F85407240CC8C333F2
:10002F00C4540F4420C8834004F456800146F6DFC1
:10003F00E4800B0102040810204080900109E47E47
:10004F00019360BCA3FF543F30E509541FFEE493B6
:10005F00A360010ECF54C025E060A840B8E493A37D
:10006F00FAE493A3F8E493A3C8C582C8CAC583CAA8
:10007F00F0A3C8C582C8CAC583CADFE9DEE780BE60
:01013C0000C2
:00000001FF
