:10015900E4FDFC7F0112008F1200F88F12E5126096
:10016900F77FE87E0312017DE512FD7C007F011215
:04017900008F80E48F
:0C01B5000A083F065B4F666D7D077F6FF8
:10008F00EF14B4080050549000A475F003A4C58376
:10009F0025F0C583730200BC0200C00200C4020039
:1000AF00C80200CC0200D40200DC0200E4D2A4801B
:1000BF000ED2A48012D2A48016D2A4801AC2A4D2C7
:1000CF00A3D2A28016C2A4D2A3C2A2800EC2A4C27F
:1000DF00A3D2A28006C2A4C2A3C2A274082DF8E6BE
:0900EF00F5807F017E0002019FF3
:10019F00EF1FAC0670011E4C600B007D027CC7DCAC
:0501AF00FEDDFC80EB09
:0101B4002228
:1000F800E4F51520B1137F14FE12019F30B1FD7F86
:10010800147E0012019F75150120B0147F147E0023
:1001180012019F30B0FD7F147E0012019F751502F9
:1001280020B2147F147E0012019F30B2FD7F147E2E
:100138000012019F75150320B3147F147E0012016D
:100148009F30B3FD7F147E0012019F751504AF1513
:010158002284
:0501C200007FE3DFFEF9
:0101C7002215
:04017D00AD07AC0618
:10018100E4FBFAED25E0FFEC33FEC3EB9FEA9E5062
:0D0191000CB2A51201C20BBB00010A80E6F2
:01019E00223E
:03000000020003F8
:0C000300787FE4F6D8FD75811502004AF4
:10000F00020159E493A3F8E493A34003F68001F2AD
:10001F0008DFF48029E493A3F85407240CC8C333F2
:10002F00C4540F4420C8834004F456800146F6DFC1
:10003F00E4800B01020408102040809001B5E47E9B
:10004F00019360BCA3FF543F30E509541FFEE493B6
:10005F00A360010ECF54C025E060A840B8E493A37D
:10006F00FAE493A3F8E493A3C8C582C8CAC583CAA8
:10007F00F0A3C8C582C8CAC583CADFE9DEE780BE60
:0101C100003D
:00000001FF
