:06027F0048656C6C6F0085
:1000970012023C7B417D017F011202757BFF7A02D0
:1000A700797F7D037F011201C8750C037B7B7A0082
:1000B7007D097F01120209750C027BBE7AFF7D0D57
:1000C7007F011200EA750C027BA87A007D017F028E
:1000D700120124750C087BAA7A007D047F021201A5
:0300E7005D80FE3B
:06025000C2A58F80D2A7B9
:080256007F027EEFDEFEDFFCFB
:01025E00227D
:0A026B00C2A6120250C2A7020256FA
:1001EB00CFCDCFCECCCE1200427C007D0A12004286
:0401FB00ED2430FFC0
:0A01FF00D2A6120250C2A702025657
:10022600AE07BE0104ED148006BE0209ED243F446C
:0602360080FF12026B22A2
:10023C007F3812026B7F0C12026B7F0612026B7FEF
:04024C000102026B3E
:0A027500AC03120226AF040201FFE1
:0601C8008B088A09890A78
:1001CE00120226E4FDAB08AA09A90A8D82758300E6
:0C01DE00120003FF60061201FF0D80E913
:0101EA0022F2
:0C0195007F0AEA24FFFDE434FFFC7E003A
:0801A1008E0F8F108C118D12DE
:1001A9007F017E00E4FBEBC39512E5116480F874CE
:0E01B9008098500AAC0FAD101200300B80E899
:0101C7002215
:040209008A0A8B0BC7
:10020D00120226AA0CEAD39400400D120195AC0AF5
:08021D00AD0B1201EB1A80ED9C
:0102250022B6
:1000EA00120226C3EA64809480400B7F2B1201FF20
:1000FA008A0D8B0E800E7F2D1201FFC3E49BF50E35
:10010A00E49AF50DAA0CEAD39400400D120195ACBD
:09011A000DAD0E1201EB1A80ED8F
:0101230022B9
:040124008A0A8B0BAD
:10012800120226AA0CEAD3940040297F10120197E4
:10013800AC0AAD0BCFCDCFCECCCE120042EF540FD0
:10014800FEC3940AEE5004243080022437FF1201C3
:04015800FF1A80D139
:01015C002280
:04015D008A0A8B0B74
:10016100120226AA0CEAD394004028EA24FFFDE4F7
:1001710034FFFC7F027E001201A1AC0AAD0BCFCD92
:10018100CFCECCCE120042EF54012430FF1201FF3A
:030191001A80D2FF
:010194002248
:0300000002025F9A
:0C025F00787FE4F6D8FD7581120200974C
:10000300BB010CE58229F582E5833AF583E02250B2
:1000130006E92582F8E622BBFE06E92582F8E222FC
:0D002300E58229F582E5833AF583E4932216
:10003000EF8DF0A4A8F0CF8CF0A428CE8DF0A42EE4
:02004000FE229E
:10004200BC000BBE0029EF8DF084FFADF022E4CCA2
:10005200F875F008EF2FFFEE33FEEC33FCEE9DEC6B
:10006200984005FCEE9DFE0FD5F0E9E4CEFD22EDB1
:10007200F8F5F0EE8420D21CFEADF075F008EF2FFB
:10008200FFED33FD4007985006D5F0F222C398FDEC
:050092000FD5F0EA2289
:00000001FF
