:0300D7000108001D
:1000BC0012008FAF081200CF05087FE87E031200F4
:0300CC00A680F01B
:1000A600EF1FAC0670011E4C600B007D027CC7DCA6
:0500B600FEDDFC80EB03
:0100BB002222
:10008F0043878075984053890F438920758BF4758A
:07009F008DF4C2ABD28E22EA
:0800CF008F993099FDC29922BE
:03000000020003F8
:0C000300787FE4F6D8FD75810802004A01
:10000F000200BCE493A3F8E493A34003F68001F24B
:10001F0008DFF48029E493A3F85407240CC8C333F2
:10002F00C4540F4420C8834004F456800146F6DFC1
:10003F00E4800B01020408102040809000D7E47E7A
:10004F00019360BCA3FF543F30E509541FFEE493B6
:10005F00A360010ECF54C025E060A840B8E493A37D
:10006F00FAE493A3F8E493A3C8C582C8CAC583CAA8
:10007F00F0A3C8C582C8CAC583CADFE9DEE780BE60
:0100DA000025
:00000001FF
