:02005100A907FD
:10005300E4FBFAAF0374807E00A807088006CEA2F3
:10006300E713CE13D8F8FFE9FDEF5D24FF92B4D276
:10007300B6C2B60BBB00010AEB64084A70D5D2B511
:02008300C2B504
:010085002258
:100086008F08AF05120051AF087480A807088002D8
:10009600C313D8FCF4F5807F017E001200A875809A
:0200A600FF2237
:10000300C2B6C2B57D3C7C00E4FF1200867D427C13
:10001300007F011200867DA97C007F021200867D8D
:10002300857C007F031200867D857C007F0412009F
:10003300867DA97C007F051200867D427C007F06B9
:0E0043001200867D3C7C007F0712008680B68E
:1000A800EF1FAC0670011E4C600B007D027CC7DCA4
:0500B800FEDDFC80EB01
:0100BD002220
:030000000200BE3D
:0C00BE00787FE4F6D8FD7581080200038D
:00000001FF
