:100198001201B91202098F15E5156002F514E5146C
:1001A800FD7C007F0112009A7F647E001201D080DE
:0101B800E264
:03000B00020107E8
:10010700C0E0C0F0C083C082C0D075D000C000C0BE
:0D01170001C002C003C004C005C006C0073F
:10012400758A66758CFC0513E51370020512C39479
:1001340014E5129400400975120075130012015F52
:10014400D007D006D005D004D003D002D001D0000F
:0B015400D0D0D082D083D0F0D0E032B9
:1001D000EF1FAC0670011E4C600B007D027CC7DC7B
:0501E000FEDDFC80EBD8
:0101E50022F7
:0C01FC000A083F065B4F666D7D077F6FB1
:10009A00EF14B4080050549000AF75F003A4C58360
:1000AA0025F0C583730200C70200CB0200CF02000D
:1000BA00D30200D70200DF0200E70200EFD2A480D9
:1000CA000ED2A48012D2A48016D2A4801AC2A4D2BC
:1000DA00A3D2A28016C2A4D2A3C2A2800EC2A4C274
:1000EA00A3D2A28006C2A4C2A3C2A274082DF8E6B3
:0D00FA00F5807F017E001201D0E4F5802228
:08020900851819E4F518AF187F
:0102110022CA
:1001E600E4FF20B1010F20B0027F0220B2027F039C
:0501F60020B3027F04AC
:0101FB0022E1
:10015F008516171201E68F16E517B40107E516701D
:10016F0003751801E517B40207E516700375180239
:10017F00E517B40307E5167003751803E517B40404
:08018F0007E516700375180462
:010197002245
:1001B9005389F0438901758A66758CFCC28DD28C8E
:0701C900D2A9D2AFC2B92296
:0300000002000EED
:0C000E00787FE4F6D8FD758119020055DA
:10001A00020198E493A3F8E493A34003F68001F263
:10002A0008DFF48029E493A3F85407240CC8C333E7
:10003A00C4540F4420C8834004F456800146F6DFB6
:10004A00E4800B01020408102040809001FCE47E49
:10005A00019360BCA3FF543F30E509541FFEE493AB
:10006A00A360010ECF54C025E060A840B8E493A372
:10007A00FAE493A3F8E493A3C8C582C8CAC583CA9D
:10008A00F0A3C8C582C8CAC583CADFE9DEE780BE55
:0102080000F5
:00000001FF
