:0E036600636C6F636B3A0020203A20203A004F
:09037400011A37011C3B011B17A3
:10012E001203431203007BFF7A0379667D017F0180
:10013E001202A27BFF7A03796D7D017F021202A269
:10014E00E51BFB7A00750C027D017F021202E3E5CE
:10015E001CFB7A00750C027D047F021202E3E51A85
:0F016E00FB7A00750C027D077F021202E380D13D
:03000B0002017D72
:04017D00C0E0C0D04E
:10018100758A66758CFC0519E51970020518C3940A
:10019100E8E51894034027751800751900051AE55C
:1001A1001A943C4019751A00051CE51C943C400E3C
:0E01B100751C00051BE51B94184003751B0010
:0501BF00D0D0D0E032B9
:10031700EF1FAC0670011E4C600B007D027CC7DC32
:05032700FEDDFC80EB8F
:01032C0022AE
:06035700C2A58F80D2A7B1
:08035D007F027EEFDEFEDFFCF3
:010365002275
:0A037E00C2A6120357C2A702035DD6
:1002C500CFCDCFCECCCE12004D7C007D0A12004D95
:0402D500ED2430FFE5
:0A02D900D2A6120357C2A702035D6C
:10032D00AE07BE0104ED148006BE0209ED243F4464
:06033D0080FF12037E2286
:100343007F3812037E7F0C12037E7F0612037E7FAB
:040353000102037E22
:0A038800AC0312032DAF040202D9EA
:0602A2008B088A09890A9D
:1002A80012032DE4FDAB08AA09A90A8D8275830003
:0C02B80012000EFF60061202D90D80E952
:0102C4002217
:0C026F007F0AEA24FFFDE434FFFC7E005F
:08027B008E0D8F0E8C0F8D100B
:100283007F017E00E4FBEBC39510E50F6480F874F7
:0E0293008098500AAC0DAD0E12003B0B80E8B7
:0102A100223A
:0402E3008A0A8B0BED
:1002E70012032DAA0CEAD39400400D12026FAC0A38
:0802F700AD0B1202C51A80EDE7
:0102FF0022DC
:1001C40012032DC3EA64809480400B7F2B1202D962
:1001D4008A168B17800E7F2D1202D9C3E49BF51764
:1001E400E49AF516AA15EAD39400400D12026FACF6
:0901F40016AD171202C51A80EDC8
:0101FD0022DF
:0401FE008A1F8B20A9
:1002020012032DAA21EAD3940040297F1012027111
:10021200AC1FAD20CFCDCFCECCCE12004DEF540FC0
:10022200FEC3940AEE5004243080022437FF1202E7
:04023200D91A80D184
:0102360022A5
:040237008A248B2565
:10023B0012032DAA26EAD394004028EA24FFFDE4FA
:10024B0034FFFC7F027E0012027BAC24AD25CFCDA8
:10025B00CFCECCCE12004DEF54012430FF1202D979
:03026B001A80D224
:01026E00226D
:100300005389F0438901758A66758CFCC28DD28C45
:07031000D2A9D2AFC2B9224D
:030000000200A259
:0C00A200787FE4F6D8FD7581260200E9A5
:10000E00BB010CE58229F582E5833AF583E02250A7
:10001E0006E92582F8E622BBFE06E92582F8E222F1
:0D002E00E58229F582E5833AF583E493220B
:10003B00EF8DF0A4A8F0CF8CF0A428CE8DF0A42ED9
:02004B00FE2293
:10004D00BC000BBE0029EF8DF084FFADF022E4CC97
:10005D00F875F008EF2FFFEE33FEEC33FCEE9DEC60
:10006D00984005FCEE9DFE0FD5F0E9E4CEFD22EDA6
:10007D00F8F5F0EE8420D21CFEADF075F008EF2FF0
:10008D00FFED33FD4007985006D5F0F222C398FDE1
:05009D000FD5F0EA227E
:1000AE0002012EE493A3F8E493A34003F68001F239
:1000BE0008DFF48029E493A3F85407240CC8C33353
:1000CE00C4540F4420C8834004F456800146F6DF22
:1000DE00E4800B0102040810204080900374E47E3B
:1000EE00019360BCA3FF543F30E509541FFEE49317
:1000FE00A360010ECF54C025E060A840B8E493A3DE
:10010E00FAE493A3F8E493A3C8C582C8CAC583CA08
:10011E00F0A3C8C582C8CAC583CADFE9DEE780BEC0
:01037D00007F
:00000001FF
