:05001E0012000380FE4A
:03002300020026B2
:10002600C0E0C0F0C083C082C0D075D000C000C0A0
:1000360001C002C003C004C005C006C00730980C4A
:10004600E599F4F5A0AF9912008FC298D007D006B3
:10005600D005D004D003D002D001D000D0D0D082B9
:07006600D083D0F0D0E0329E
:10006D00EF1FAC0670011E4C600B007D027CC7DCDF
:05007D00FEDDFC80EB3C
:01008200225B
:1000030043878075985053890F438920758BF47506
:0B0013008DF4C2ABD28ED2AFD2AC2273
:08008F008F993099FDC29922FE
:0300000002008378
:0C008300787FE4F6D8FD75810702001EAE
:00000001FF
