:1002480048656C6C6F0057656C636F6D6520746FE3
:08025800206368696E6121005A
:100097001202767B417D017F011202C27BFF7A0249
:1000A70079487D037F011201EA750C027B427A00D1
:1000B7007D097F0112022B750C027BA87AFF7D0C4C
:1000C7007F0112010C750C027BA57A007D017F026E
:1000D700120146750C087BA57A007D047F02120188
:1000E7007F7BDF7D0D7F021202C27BFF7A02794E92
:1000F7007D107F011201EA7F181202B87FF47E019A
:0501070012026080F20D
:06028A00C2A58F80D2A77F
:0B0290000000007F0B7EBEDEFEDFFCE6
:01029B002240
:0A02B800C2A612028AC2A702029039
:10020D00CFCDCFCECCCE1200427C007D0A12004263
:04021D00ED2430FF9D
:0A022100D2A612028AC2A7020290C0
:100276007F381202B87F0C1202B87F061202B87FCE
:04028600010202B8B7
:10029C00EDBF0103148002243F4480FF1202B822F8
:0A02C200AC0312029CAF04020221FB
:0601EA008B088A09890A56
:1001F00012029CE4FDAB08AA09A90A8D827583004E
:0C020000120003FF60061202210D80E9CD
:01020C0022CF
:0C01B7007F0AEA24FFFDE434FFFC7E0018
:0801C3008E0F8F108C118D12BC
:1001CB007F017E00E4FBEBC39512E5116480F874AC
:0E01DB008098500AAC0FAD101200300B80E877
:0101E90022F3
:04022B008A0A8B0BA5
:10022F0012029CAA0CEAD39400400D1201B7AC0A3B
:08023F00AD0B12020D1A80ED57
:010247002294
:10010C0012029CC3EA64809480400B7F2B12022164
:10011C008A0D8B0E800E7F2D120221C3E49BF50EEF
:10012C00E49AF50DAA0CEAD39400400D1201B7AC79
:09013C000DAD0E12020D1A80ED4A
:010145002297
:040146008A0A8B0B8B
:10014A0012029CAA0CEAD3940040297F101201B92A
:10015A00AC0AAD0BCFCDCFCECCCE120042EF540FAE
:10016A00FEC3940AEE5004243080022437FF1202A0
:04017A00211A80D1F5
:01017E00225E
:04017F008A0A8B0B52
:1001830012029CAA0CEAD394004028EA24FFFDE45F
:1001930034FFFC7F027E001201C3AC0AAD0BCFCD4E
:1001A300CFCECCCE120042EF54012430FF120221F5
:0301B3001A80D2DD
:0101B6002226
:10026000EF1FAC0670011E4C600B007D027CC7DCEA
:05027000FEDDFC80EB47
:010275002266
:030000000202AC4D
:0C02AC00787FE4F6D8FD758112020097FF
:10000300BB010CE58229F582E5833AF583E02250B2
:1000130006E92582F8E622BBFE06E92582F8E222FC
:0D002300E58229F582E5833AF583E4932216
:10003000EF8DF0A4A8F0CF8CF0A428CE8DF0A42EE4
:02004000FE229E
:10004200BC000BBE0029EF8DF084FFADF022E4CCA2
:10005200F875F008EF2FFFEE33FEEC33FCEE9DEC6B
:10006200984005FCEE9DFE0FD5F0E9E4CEFD22EDB1
:10007200F8F5F0EE8420D21CFEADF075F008EF2FFB
:10008200FFED33FD4007985006D5F0F222C398FDEC
:050092000FD5F0EA2289
:00000001FF
